:020000000329D2
:0E000600213083120313FD00FD0B07280800B4
:100014000F3083120313FC004730FD00FD0B102842
:0A002400FC0B10280000000008008B
:06002E00000000000800C4
:1000340083120313C21B2028861121288615421B14
:100044002528061126280615C21A2A2886102B28C8
:100054008614421A2F280610302806143C18342817
:10006400061635280612861617208612C2193C2851
:1000740086113D2886154219412806114228061585
:10008400C218462886104728861442184B280610A2
:100094004C2806143C1850280616512806128616B9
:1000A400172086123C1C58280A20592803200800CF
:0E00B400831203133B088A003A0882000800FA
:1000C200831203133C104108C2001A203C1408009A
:1000D2008316031386120612061086100611861165
:1000E20083128612061286110611861006100A2045
:1000F2000A200A20861406148616172086120A2061
:100102008616172086120A208616172086120A20C3
:1001120006108616172086120A20861617208612C7
:10012200861086158616172086120A208611061456
:1001320086161720861206108616172086120A20A7
:1001420086161720861206148616172086120A2093
:1001520006108616172086128615061586140614B2
:0C0162008616172086120A203C140800A4
:10016E00C928803083120313BD00DC28C030BD00C7
:10017E00DC289430BD00DC28D430BD00DC28803073
:10018E00BD00DC28831203133D08013A0319B82879
:10019E003D08023A0319BD283D08033A0319C02849
:1001AE003D08043A0319C328C6283E03F0003D0853
:1001BE00F0077008BD007008C2001A203C10C00184
:1001CE0040083F07840000080319F52840083F0740
:1001DE0084000008C1006120C00AE7283C14080012
:1001EE005A208A110A128000840ABA0A0319BB0A1D
:0801FE00F003031DF7280800BF
:10020600203083120313A0002030A1002030A2006A
:100216002030A3003330A4004230A5003230A600BF
:100226002030A7002030A8002030A9002030AA00E6
:100236002030AB00AC014E30AD006130AE00643012
:10024600AF006530B0007230B1002030B2004A30E5
:10025600B3006130B4007230B5006430B60061306E
:10026600B7006B30B800B90169200130C2001A200E
:100276000C30C2001A200130BD000130BE00203013
:10028600BF00B7200230BD000130BE002D30BF00D8
:04029600B7204C2918
:02400E004A2F37
:00000001FF
